:100000000C942A000C9447000C9447000C94470071
:100010000C9447000C9447000C9447000C94470044
:100020000C9447000C9447000C9447000C94490032
:100030000C9472000C9447000C9447000C944700F9
:100040000C9447000C9447000C9447000C94470014
:100050000C94470011241FBECFE5D4E0DEBFCDBF16
:1000600010E0A0E6B0E0E4E6F6E002C005900D92F4
:10007000AC3CB107D9F712E0ACECB0E001C01D9286
:10008000A333B107E1F70E94A0020C9430030C9453
:1000900000001F920F920FB60F9211242F938F938F
:1000A0009F93EF93FF939BB12CB1E0912402EF5FFC
:1000B00080912502E81711F482E008C0892F887129
:1000C000E0932402F0E0EE5DFE4F20838093260251
:1000D000FF91EF919F918F912F910F900FBE0F90F5
:1000E0001F9018951F920F920FB60F9211248F93A5
:1000F0009F93EF93FF939091220280912302981790
:1001000061F0E0912302EF5FEF70E0932302F0E0F3
:10011000EE5EFE4F80818CB907C0559881E090E07B
:100120009093CD008093CC00FF91EF919F918F91A0
:100130000F900FBE0F901F9018959C0110922202F5
:1001400010922302109224021092250297FF03C0FE
:1001500082E08BB93F7730BD29B988E98AB986E852
:1001600080BD08959091240280912502981719F47A
:1001700020E031E011C0E0912502EF5FE09325021D
:10018000F0E0EE5DFE4F308120912602922F80E05C
:10019000AC01430F511D9A01C9010895282F909178
:1001A00022029F5F9F70809123029817E1F3E92F4D
:1001B000F0E0EE5EFE4F2083909322021092CD007D
:1001C0001092CC00559A0895CF93DF93EC0103C0B1
:1001D00021960E94CE0088818823D1F7DF91CF91AC
:1001E000089587B3877887BBC19AC09881E08A95C4
:1001F000F1F721E032E0C29A822F8A95F1F786B3B7
:100200008695869586958295807F922F9A95F1F7AF
:10021000C298932F9A95F1F7C29A922F9A95F1F777
:1002200096B3922F9A95F1F7C298932F9A95F1F77A
:1002300087FDE1CFC19887B3886787BB0895282FD2
:10024000662311F4C09801C0C09A81E08A95F1F745
:10025000C29A98B3822F82958F70880F880F880F6B
:100260009778892B88BB92E0892F8A95F1F7C298FD
:10027000892F8A95F1F7C29A88B32F70220F220F27
:10028000220F8778822B88BB892F8A95F1F7C29835
:100290009A95F1F70E94F1000895CF93DF93EC0156
:1002A00010C0853251F4219688818053883028F01F
:1002B00085E261E00E941F01888161E00E941F01C8
:1002C00021968881882369F7DF91CF910895EF9275
:1002D000FF920F931F93DF93CF9300D000D00F9224
:1002E000CDB7DEB79C018B01FE01319685E0DF01C1
:1002F0001D928A95E9F7FE0135960DC0C9016AE0A5
:1003000070E00E94D8028083C9016AE070E00E9418
:10031000D8029B0131972115310581F7BFEF0F3FBF
:100320001B0779F420E030E0AE014F5F5F4F02C061
:100330002F5F3F4FFA01E20FF31F80818823C1F343
:1003400004C025E030E0201B310B7E010894E11C45
:10035000F11CE20EF31E890109C0F70181917F01B2
:10036000805D61E00E941F010F5F1F4F0530110586
:10037000A4F30F900F900F900F900F90CF91DF91FB
:100380001F910F91FF90EF900895843178F46230BF
:1003900031F0633031F0613029F4806403C08C5E49
:1003A00001C08C5A806860E00E941F0108951F936D
:1003B000182F80E098ED0197F1F787B3886787BB26
:1003C000BA9AB89AB99A88B3877888BBC298C19804
:1003D000C09881E08A95F1F7C29AC49A82E0982F7A
:1003E0009A95F1F7C2988A95F1F70E94F100812F52
:1003F0008C6060E00E941F0188E260E00E941F01A3
:1004000080E460E00E941F0180E060E00E94C5017E
:100410001F91089596B1976196B987B93E9A3D9A12
:10042000379A369A349BFECF349A85B190E008957E
:100430008FEFC89B02C085BBFCCF15BAFACFDA9804
:1004400086E69EE0FC013197F1F7DA9A0197F1F721
:1004500008959798969A0895979A96980895979AD6
:10046000969A0895209110013091110180E590E055
:10047000AC01249FC001259F900D349F900D112445
:100480008C58994190932E0280932D02089580E21A
:100490009EE420912D0230912E02821B930B9093AB
:1004A000300280932F0208952091100130911101A4
:1004B00083E490E0AC01249FC001259F900D349F00
:1004C000900D1124835F964190932C0280932B0210
:1004D000089580E29EE42091290230912A02821B35
:1004E000930B9093320280933102089583E00E942F
:1004F000D70180E060E00E94C50180E690E00E94A4
:100500004D0180E197E228EB30E0F9013197F1F7F6
:100510000197D9F781E060E00E941F0180E060E070
:100520000E94C50180E790E00E944D0180E197E2C2
:1005300028EB30E0F9013197F1F70197D9F70895E9
:100540000F931F938FE290E00E949D0078948DE7B7
:1005500090E00E94E400A39A8D9A8E9A8F9A959AC1
:100560008C9AAB9A8B9A8A9A0E947602AB9A80E018
:1005700090E00E940A028C0168EE70E04AE050E0D0
:100580000E94FF0288EE90E00E94E40080E061E0BB
:100590000E94C50189E890E00E944D0181E061E080
:1005A0000E94C501C80164E070E00E946701DECFCF
:1005B00097FB092E07260AD077FD04D00CD006D071
:1005C00000201AF4709561957F4F0895F6F7909585
:1005D00081959F4F0895AA1BBB1B51E107C0AA1F1D
:1005E000BB1FA617B70710F0A61BB70B881F991FD4
:1005F0005A95A9F780959095BC01CD010895FB010E
:100600009F01E8944230C4F04532B4F44A3029F4F2
:1006100097FB1EF4909581959F4F642F77270E943A
:10062000EB02805D8A330CF0895D8193CB010097EA
:10063000A1F716F45DE251931082C9010C942003D6
:10064000DC01FC01672F71917723E1F7329704C039
:100650007C916D9370836291AE17BF07C8F30895C4
:04066000F894FFCF3C
:100664002A2A2A2A57454C434F4D452A2A2A2A002A
:10067400416363656C6F726D6574657200696E6960
:100684007469616C697A65640078000C12120C005C
:100694000000000C1204081E0000000A15110A04D0
:1006A4000000000305090B0B1818001F0E0E0404AC
:1006B40004040401010505151515000E11111F1F71
:0C06C4001F1F00000000000000000000EC
:00000001FF
